{
  "transactions": [
    {
      "hash": "0xb285287b071645f5ea7b5a7d80c8b13710bb0d99a73414d60f25c73be90dab01",
      "transactionType": "CALL",
      "contractName": null,
      "contractAddress": "0x036cbd53842c5426634e7929541ec2318f3dcf7e",
      "function": "approve(address,uint256)",
      "arguments": [
        "0x000000000022D473030F116dDEE9F6B43aC78BA3",
        "115792089237316195423570985008687907853269984665640564039457584007913129639935"
      ],
      "transaction": {
        "from": "0x3d04a2384f512bd49408618b16210cfc1e648569",
        "to": "0x036cbd53842c5426634e7929541ec2318f3dcf7e",
        "gas": "0xdca8",
        "value": "0x0",
        "input": "0x095ea7b3000000000000000000000000000000000022d473030f116ddee9f6b43ac78ba3ffffffffffffffffffffffffffffffffffffffffffffffffffffffffffffffff",
        "nonce": "0x42",
        "chainId": "0x14a34"
      },
      "additionalContracts": [],
      "isFixedGasLimit": false
    },
    {
      "hash": "0x73d087d9ef3a3f98be07e2c111a5e374af121d30290e01e81ad2a56d44a5f36d",
      "transactionType": "CALL",
      "contractName": null,
      "contractAddress": "0x4200000000000000000000000000000000000006",
      "function": "approve(address,uint256)",
      "arguments": [
        "0x000000000022D473030F116dDEE9F6B43aC78BA3",
        "115792089237316195423570985008687907853269984665640564039457584007913129639935"
      ],
      "transaction": {
        "from": "0x3d04a2384f512bd49408618b16210cfc1e648569",
        "to": "0x4200000000000000000000000000000000000006",
        "gas": "0x8e58",
        "value": "0x0",
        "input": "0x095ea7b3000000000000000000000000000000000022d473030f116ddee9f6b43ac78ba3ffffffffffffffffffffffffffffffffffffffffffffffffffffffffffffffff",
        "nonce": "0x43",
        "chainId": "0x14a34"
      },
      "additionalContracts": [],
      "isFixedGasLimit": false
    },
    {
      "hash": "0xd2ea91d6d663ab13b4237da0018c0741c87f5c3a0049a70083bd4c8eae039eee",
      "transactionType": "CALL",
      "contractName": null,
      "contractAddress": "0x000000000022d473030f116ddee9f6b43ac78ba3",
      "function": "approve(address,address,uint160,uint48)",
      "arguments": [
        "0x036CbD53842c5426634e7929541eC2318f3dCF7e",
        "0x4B2C77d209D3405F41a037Ec6c77F7F5b8e2ca80",
        "1461501637330902918203684832716283019655932542975",
        "281474976710655"
      ],
      "transaction": {
        "from": "0x3d04a2384f512bd49408618b16210cfc1e648569",
        "to": "0x000000000022d473030f116ddee9f6b43ac78ba3",
        "gas": "0x96a0",
        "value": "0x0",
        "input": "0x87517c45000000000000000000000000036cbd53842c5426634e7929541ec2318f3dcf7e0000000000000000000000004b2c77d209d3405f41a037ec6c77f7f5b8e2ca80000000000000000000000000ffffffffffffffffffffffffffffffffffffffff0000000000000000000000000000000000000000000000000000ffffffffffff",
        "nonce": "0x44",
        "chainId": "0x14a34"
      },
      "additionalContracts": [],
      "isFixedGasLimit": false
    },
    {
      "hash": "0xdb6d1b3d9205884dd470e396e24b7d6b05c88eeca297b409993b7dfc323b3dfb",
      "transactionType": "CALL",
      "contractName": null,
      "contractAddress": "0x000000000022d473030f116ddee9f6b43ac78ba3",
      "function": "approve(address,address,uint160,uint48)",
      "arguments": [
        "0x4200000000000000000000000000000000000006",
        "0x4B2C77d209D3405F41a037Ec6c77F7F5b8e2ca80",
        "1461501637330902918203684832716283019655932542975",
        "281474976710655"
      ],
      "transaction": {
        "from": "0x3d04a2384f512bd49408618b16210cfc1e648569",
        "to": "0x000000000022d473030f116ddee9f6b43ac78ba3",
        "gas": "0x9576",
        "value": "0x0",
        "input": "0x87517c4500000000000000000000000042000000000000000000000000000000000000060000000000000000000000004b2c77d209d3405f41a037ec6c77f7f5b8e2ca80000000000000000000000000ffffffffffffffffffffffffffffffffffffffff0000000000000000000000000000000000000000000000000000ffffffffffff",
        "nonce": "0x45",
        "chainId": "0x14a34"
      },
      "additionalContracts": [],
      "isFixedGasLimit": false
    },
    {
      "hash": "0xea34b83569d94bde50ca62f1c6a93713e8bbdc9483fe9231ace2a2c36ef6a010",
      "transactionType": "CALL",
      "contractName": null,
      "contractAddress": "0x4b2c77d209d3405f41a037ec6c77f7f5b8e2ca80",
      "function": "modifyLiquidities(bytes,uint256)",
      "arguments": [
        "0x0000000000000000000000000000000000000000000000000000000000000040000000000000000000000000000000000000000000000000000000000000008000000000000000000000000000000000000000000000000000000000000000030212120000000000000000000000000000000000000000000000000000000000000000000000000000000000000000000000000000000000000000000000000300000000000000000000000000000000000000000000000000000000000000600000000000000000000000000000000000000000000000000000000000000220000000000000000000000000000000000000000000000000000000000000026000000000000000000000000000000000000000000000000000000000000001a0000000000000000000000000036cbd53842c5426634e7929541ec2318f3dcf7e00000000000000000000000042000000000000000000000000000000000000060000000000000000000000000000000000000000000000000000000000000bb8000000000000000000000000000000000000000000000000000000000000003c000000000000000000000000a7a8c5d56e6b7318a3fa61b71a9905e59f474080ffffffffffffffffffffffffffffffffffffffffffffffffffffffffffface28fffffffffffffffffffffffffffffffffffffffffffffffffffffffffffafd44000000000000000000000000000000000000000000000000000000000000000100000000000000000000000000000000ffffffffffffffffffffffffffffffff00000000000000000000000000000000ffffffffffffffffffffffffffffffff0000000000000000000000003d04a2384f512bd49408618b16210cfc1e648569000000000000000000000000000000000000000000000000000000000000018000000000000000000000000000000000000000000000000000000000000000000000000000000000000000000000000000000000000000000000000000000020000000000000000000000000036cbd53842c5426634e7929541ec2318f3dcf7e00000000000000000000000000000000000000000000000000000000000000200000000000000000000000004200000000000000000000000000000000000006",
        "1770524396"
      ],
      "transaction": {
        "from": "0x3d04a2384f512bd49408618b16210cfc1e648569",
        "to": "0x4b2c77d209d3405f41a037ec6c77f7f5b8e2ca80",
        "gas": "0x73817",
        "value": "0x0",
        "input": "0xdd46508f00000000000000000000000000000000000000000000000000000000000000400000000000000000000000000000000000000000000000000000000069880eec00000000000000000000000000000000000000000000000000000000000003400000000000000000000000000000000000000000000000000000000000000040000000000000000000000000000000000000000000000000000000000000008000000000000000000000000000000000000000000000000000000000000000030212120000000000000000000000000000000000000000000000000000000000000000000000000000000000000000000000000000000000000000000000000300000000000000000000000000000000000000000000000000000000000000600000000000000000000000000000000000000000000000000000000000000220000000000000000000000000000000000000000000000000000000000000026000000000000000000000000000000000000000000000000000000000000001a0000000000000000000000000036cbd53842c5426634e7929541ec2318f3dcf7e00000000000000000000000042000000000000000000000000000000000000060000000000000000000000000000000000000000000000000000000000000bb8000000000000000000000000000000000000000000000000000000000000003c000000000000000000000000a7a8c5d56e6b7318a3fa61b71a9905e59f474080ffffffffffffffffffffffffffffffffffffffffffffffffffffffffffface28fffffffffffffffffffffffffffffffffffffffffffffffffffffffffffafd44000000000000000000000000000000000000000000000000000000000000000100000000000000000000000000000000ffffffffffffffffffffffffffffffff00000000000000000000000000000000ffffffffffffffffffffffffffffffff0000000000000000000000003d04a2384f512bd49408618b16210cfc1e648569000000000000000000000000000000000000000000000000000000000000018000000000000000000000000000000000000000000000000000000000000000000000000000000000000000000000000000000000000000000000000000000020000000000000000000000000036cbd53842c5426634e7929541ec2318f3dcf7e00000000000000000000000000000000000000000000000000000000000000200000000000000000000000004200000000000000000000000000000000000006",
        "nonce": "0x46",
        "chainId": "0x14a34"
      },
      "additionalContracts": [],
      "isFixedGasLimit": false
    }
  ],
  "receipts": [
    {
      "status": "0x1",
      "cumulativeGasUsed": "0x89634b",
      "logs": [
        {
          "address": "0x036cbd53842c5426634e7929541ec2318f3dcf7e",
          "topics": [
            "0x8c5be1e5ebec7d5bd14f71427d1e84f3dd0314c0f7b2291e5b200ac8c7c3b925",
            "0x0000000000000000000000003d04a2384f512bd49408618b16210cfc1e648569",
            "0x000000000000000000000000000000000022d473030f116ddee9f6b43ac78ba3"
          ],
          "data": "0xffffffffffffffffffffffffffffffffffffffffffffffffffffffffffffffff",
          "blockHash": "0xb5824a7e2d8da9ab9c8583cbd29669511e8c6076da2a9cb23158552207fbf70a",
          "blockNumber": "0x23a577f",
          "blockTimestamp": "0x69880dde",
          "transactionHash": "0xb285287b071645f5ea7b5a7d80c8b13710bb0d99a73414d60f25c73be90dab01",
          "transactionIndex": "0xf",
          "logIndex": "0x8b",
          "removed": false
        }
      ],
      "logsBloom": "0x00000000040000000000000000000000000000000000000000000000000000000000000000000000000000000000000000000000800400000000000000200000000000000000000000004000000000000000000000000800000000000000000800000000000000000000000000000000000000000000000000000000000000000000000000000000000000000000000000000000000000000000000000000000020000000000000000000000000000000000000100000000000000000000000000000000000000000000000000000000000000000000000000000000000000000010000000000000000008000020000000000000000000000000000000000000",
      "type": "0x2",
      "transactionHash": "0xb285287b071645f5ea7b5a7d80c8b13710bb0d99a73414d60f25c73be90dab01",
      "transactionIndex": "0xf",
      "blockHash": "0xb5824a7e2d8da9ab9c8583cbd29669511e8c6076da2a9cb23158552207fbf70a",
      "blockNumber": "0x23a577f",
      "gasUsed": "0x96e1",
      "effectiveGasPrice": "0x124f80",
      "blobGasUsed": "0x79e0",
      "from": "0x3d04a2384f512bd49408618b16210cfc1e648569",
      "to": "0x036cbd53842c5426634e7929541ec2318f3dcf7e",
      "contractAddress": null,
      "daFootprintGasScalar": "0x138",
      "l1BaseFeeScalar": "0x44d",
      "l1BlobBaseFee": "0x38da91d",
      "l1BlobBaseFeeScalar": "0xa118b",
      "l1Fee": "0x150228879",
      "l1GasPrice": "0x39b65885",
      "l1GasUsed": "0x640"
    },
    {
      "status": "0x1",
      "cumulativeGasUsed": "0x50a1c8",
      "logs": [
        {
          "address": "0x4200000000000000000000000000000000000006",
          "topics": [
            "0x8c5be1e5ebec7d5bd14f71427d1e84f3dd0314c0f7b2291e5b200ac8c7c3b925",
            "0x0000000000000000000000003d04a2384f512bd49408618b16210cfc1e648569",
            "0x000000000000000000000000000000000022d473030f116ddee9f6b43ac78ba3"
          ],
          "data": "0xffffffffffffffffffffffffffffffffffffffffffffffffffffffffffffffff",
          "blockHash": "0x439a6cdc2341eeb2bf827742b5fc39fdf3b9d83e7d03f3f94147b17186a93d9e",
          "blockNumber": "0x23a5780",
          "blockTimestamp": "0x69880de0",
          "transactionHash": "0x73d087d9ef3a3f98be07e2c111a5e374af121d30290e01e81ad2a56d44a5f36d",
          "transactionIndex": "0x9",
          "logIndex": "0x6a",
          "removed": false
        }
      ],
      "logsBloom": "0x00000000000000000000000000000000000000000000000000040000000000000000000000000000000000100000000000000000800400000000000000200000000000000000000000004000000000000000000000000800000000000000000000000000000000000000000000000000000000000000000000000000000000000000000000000000000000000000000000000000002000000000000000000000020000000000000000000000000000000000000100000000000000000000000000000000000000000000000000000000000000000000000000000000000000000010000000000000000008000000000000000000000000000000000000000000",
      "type": "0x2",
      "transactionHash": "0x73d087d9ef3a3f98be07e2c111a5e374af121d30290e01e81ad2a56d44a5f36d",
      "transactionIndex": "0x9",
      "blockHash": "0x439a6cdc2341eeb2bf827742b5fc39fdf3b9d83e7d03f3f94147b17186a93d9e",
      "blockNumber": "0x23a5780",
      "gasUsed": "0x670f",
      "effectiveGasPrice": "0x124f80",
      "blobGasUsed": "0x79e0",
      "from": "0x3d04a2384f512bd49408618b16210cfc1e648569",
      "to": "0x4200000000000000000000000000000000000006",
      "contractAddress": null,
      "daFootprintGasScalar": "0x138",
      "l1BaseFeeScalar": "0x44d",
      "l1BlobBaseFee": "0x38da91d",
      "l1BlobBaseFeeScalar": "0xa118b",
      "l1Fee": "0x150228879",
      "l1GasPrice": "0x39b65885",
      "l1GasUsed": "0x640"
    },
    {
      "status": "0x1",
      "cumulativeGasUsed": "0x52cc5a",
      "logs": [
        {
          "address": "0x000000000022d473030f116ddee9f6b43ac78ba3",
          "topics": [
            "0xda9fa7c1b00402c17d0161b249b1ab8bbec047c5a52207b9c112deffd817036b",
            "0x0000000000000000000000003d04a2384f512bd49408618b16210cfc1e648569",
            "0x000000000000000000000000036cbd53842c5426634e7929541ec2318f3dcf7e",
            "0x0000000000000000000000004b2c77d209d3405f41a037ec6c77f7f5b8e2ca80"
          ],
          "data": "0x000000000000000000000000ffffffffffffffffffffffffffffffffffffffff0000000000000000000000000000000000000000000000000000ffffffffffff",
          "blockHash": "0xd3f1399415850fc9a02bb6ce56ff09816e4b5ddc7ff437e622939eb6fbb11c9d",
          "blockNumber": "0x23a5781",
          "blockTimestamp": "0x69880de2",
          "transactionHash": "0xd2ea91d6d663ab13b4237da0018c0741c87f5c3a0049a70083bd4c8eae039eee",
          "transactionIndex": "0x13",
          "logIndex": "0x99",
          "removed": false
        }
      ],
      "logsBloom": "0x00010000000000010000000000000000000000000000000000000000000000000000000000000000000000000000000000000000000400000008000010080000000000000000000000000000000000000000000000000000000000000000000000000000000000000000000000000000000000000000000000000000000000000020000040000000000000000000000000000000000000000000000000000000000000000000000000000000000000000000000100000000100000080000000000000000000000000000000000000000000000000000000040000000000000000000000000000000000008000040000000000000000000000000000000000400",
      "type": "0x2",
      "transactionHash": "0xd2ea91d6d663ab13b4237da0018c0741c87f5c3a0049a70083bd4c8eae039eee",
      "transactionIndex": "0x13",
      "blockHash": "0xd3f1399415850fc9a02bb6ce56ff09816e4b5ddc7ff437e622939eb6fbb11c9d",
      "blockNumber": "0x23a5781",
      "gasUsed": "0x6d0e",
      "effectiveGasPrice": "0x124f80",
      "blobGasUsed": "0x8748",
      "from": "0x3d04a2384f512bd49408618b16210cfc1e648569",
      "to": "0x000000000022d473030f116ddee9f6b43ac78ba3",
      "contractAddress": null,
      "daFootprintGasScalar": "0x138",
      "l1BaseFeeScalar": "0x44d",
      "l1BlobBaseFee": "0x39ed3ca",
      "l1BlobBaseFeeScalar": "0xa118b",
      "l1Fee": "0x1894b354d",
      "l1GasPrice": "0x40ed0831",
      "l1GasUsed": "0x6f5"
    },
    {
      "status": "0x1",
      "cumulativeGasUsed": "0x1618f6",
      "logs": [
        {
          "address": "0x000000000022d473030f116ddee9f6b43ac78ba3",
          "topics": [
            "0xda9fa7c1b00402c17d0161b249b1ab8bbec047c5a52207b9c112deffd817036b",
            "0x0000000000000000000000003d04a2384f512bd49408618b16210cfc1e648569",
            "0x0000000000000000000000004200000000000000000000000000000000000006",
            "0x0000000000000000000000004b2c77d209d3405f41a037ec6c77f7f5b8e2ca80"
          ],
          "data": "0x000000000000000000000000ffffffffffffffffffffffffffffffffffffffff0000000000000000000000000000000000000000000000000000ffffffffffff",
          "blockHash": "0x540c7a5280229f832880af4e82eb743f38f96c3f9f946d504fc3707b77d38533",
          "blockNumber": "0x23a5783",
          "blockTimestamp": "0x69880de6",
          "transactionHash": "0xdb6d1b3d9205884dd470e396e24b7d6b05c88eeca297b409993b7dfc323b3dfb",
          "transactionIndex": "0x5",
          "logIndex": "0x36",
          "removed": false
        }
      ],
      "logsBloom": "0x00010000000000010000000000000000000000000000000000000000000000000000000000000000000000000000000000000000000400000028000010080000000000000000000000000000000000000000000000000000000000000000000000000000000000000000000000000000000010000000000000000000000000000020000000000000000000000000000000000000000000000000000000000000000000000000000000000000000000000000000100000000000000080000000000000000000004000000000000000000000000000000000040000000000000000000000000000000000008000000000000000000000000000000000000000400",
      "type": "0x2",
      "transactionHash": "0xdb6d1b3d9205884dd470e396e24b7d6b05c88eeca297b409993b7dfc323b3dfb",
      "transactionIndex": "0x5",
      "blockHash": "0x540c7a5280229f832880af4e82eb743f38f96c3f9f946d504fc3707b77d38533",
      "blockNumber": "0x23a5783",
      "gasUsed": "0x6c36",
      "effectiveGasPrice": "0x124f80",
      "blobGasUsed": "0x7d88",
      "from": "0x3d04a2384f512bd49408618b16210cfc1e648569",
      "to": "0x000000000022d473030f116ddee9f6b43ac78ba3",
      "contractAddress": null,
      "daFootprintGasScalar": "0x138",
      "l1BaseFeeScalar": "0x44d",
      "l1BlobBaseFee": "0x39ed3ca",
      "l1BlobBaseFeeScalar": "0xa118b",
      "l1Fee": "0x16eb2b424",
      "l1GasPrice": "0x40ed0831",
      "l1GasUsed": "0x67c"
    },
    {
      "status": "0x1",
      "cumulativeGasUsed": "0x21b84a",
      "logs": [
        {
          "address": "0x4b2c77d209d3405f41a037ec6c77f7f5b8e2ca80",
          "topics": [
            "0xddf252ad1be2c89b69c2b068fc378daa952ba7f163c4a11628f55a4df523b3ef",
            "0x0000000000000000000000000000000000000000000000000000000000000000",
            "0x0000000000000000000000003d04a2384f512bd49408618b16210cfc1e648569",
            "0x000000000000000000000000000000000000000000000000000000000000426a"
          ],
          "data": "0x",
          "blockHash": "0x0000000000000000000000000000000000000000000000000000000000000000",
          "blockNumber": "0x23a5785",
          "blockTimestamp": "0x69880dea",
          "transactionHash": "0xea34b83569d94bde50ca62f1c6a93713e8bbdc9483fe9231ace2a2c36ef6a010",
          "transactionIndex": "0xa",
          "logIndex": "0x2b",
          "removed": false
        },
        {
          "address": "0x05e73354cfdd6745c338b50bcfdfa3aa6fa03408",
          "topics": [
            "0xf208f4912782fd25c7f114ca3723a2d5dd6f3bcc3ac8db5af63baa85f711d5ec",
            "0x2af58369d1041b5dc7ff43a45c021cedddf76faf1c017d1252565c7dcb7dda39",
            "0x0000000000000000000000004b2c77d209d3405f41a037ec6c77f7f5b8e2ca80"
          ],
          "data": "0xffffffffffffffffffffffffffffffffffffffffffffffffffffffffffface28fffffffffffffffffffffffffffffffffffffffffffffffffffffffffffafd440000000000000000000000000000000000000000000000000000000000000001000000000000000000000000000000000000000000000000000000000000426a",
          "blockHash": "0x0000000000000000000000000000000000000000000000000000000000000000",
          "blockNumber": "0x23a5785",
          "blockTimestamp": "0x69880dea",
          "transactionHash": "0xea34b83569d94bde50ca62f1c6a93713e8bbdc9483fe9231ace2a2c36ef6a010",
          "transactionIndex": "0xa",
          "logIndex": "0x2c",
          "removed": false
        },
        {
          "address": "0x036cbd53842c5426634e7929541ec2318f3dcf7e",
          "topics": [
            "0xddf252ad1be2c89b69c2b068fc378daa952ba7f163c4a11628f55a4df523b3ef",
            "0x0000000000000000000000003d04a2384f512bd49408618b16210cfc1e648569",
            "0x00000000000000000000000005e73354cfdd6745c338b50bcfdfa3aa6fa03408"
          ],
          "data": "0x00000000000000000000000000000000000000000000000000000000004898c8",
          "blockHash": "0x0000000000000000000000000000000000000000000000000000000000000000",
          "blockNumber": "0x23a5785",
          "blockTimestamp": "0x69880dea",
          "transactionHash": "0xea34b83569d94bde50ca62f1c6a93713e8bbdc9483fe9231ace2a2c36ef6a010",
          "transactionIndex": "0xa",
          "logIndex": "0x2d",
          "removed": false
        },
        {
          "address": "0x4200000000000000000000000000000000000006",
          "topics": [
            "0xddf252ad1be2c89b69c2b068fc378daa952ba7f163c4a11628f55a4df523b3ef",
            "0x0000000000000000000000003d04a2384f512bd49408618b16210cfc1e648569",
            "0x00000000000000000000000005e73354cfdd6745c338b50bcfdfa3aa6fa03408"
          ],
          "data": "0x0000000000000000000000000000000000000000000000000000000000000001",
          "blockHash": "0x0000000000000000000000000000000000000000000000000000000000000000",
          "blockNumber": "0x23a5785",
          "blockTimestamp": "0x69880dea",
          "transactionHash": "0xea34b83569d94bde50ca62f1c6a93713e8bbdc9483fe9231ace2a2c36ef6a010",
          "transactionIndex": "0xa",
          "logIndex": "0x2e",
          "removed": false
        }
      ],
      "logsBloom": "0x00000000040000010000000000000000000000000000000000040000000100000100000100000000000000100000000000000000000408000008000010000800000000000010000000000008000000000000000000120000000002008040000800000000020000000000000000000800000000000000000000000010000000000000000005000000000000000000000000000000002000000000000000000000000004000000000000000000000000000000000100000000000000000000000000000002001000000000000000000000000000000000000000040000000020000000000000000000000008000820000004000000000000000000000000000000",
      "type": "0x2",
      "transactionHash": "0xea34b83569d94bde50ca62f1c6a93713e8bbdc9483fe9231ace2a2c36ef6a010",
      "transactionIndex": "0xa",
      "blockHash": "0x0000000000000000000000000000000000000000000000000000000000000000",
      "blockNumber": "0x23a5785",
      "gasUsed": "0x539fd",
      "effectiveGasPrice": "0x124f80",
      "blobGasUsed": "0x131e8",
      "from": "0x3d04a2384f512bd49408618b16210cfc1e648569",
      "to": "0x4b2c77d209d3405f41a037ec6c77f7f5b8e2ca80",
      "contractAddress": null,
      "daFootprintGasScalar": "0x138",
      "l1BaseFeeScalar": "0x44d",
      "l1BlobBaseFee": "0x39ed3ca",
      "l1BlobBaseFeeScalar": "0xa118b",
      "l1Fee": "0x4f3ff5b77",
      "l1GasPrice": "0x40ed0831",
      "l1GasUsed": "0xfbd"
    }
  ],
  "libraries": [],
  "pending": [],
  "returns": {},
  "timestamp": 1770524137413,
  "chain": 84532,
  "commit": null
}