{
  "transactions": [
    {
      "hash": "0x1dde061bccbfa8ac1b7daf5530690f3bd6f14a68af5ae52f678eb307bc045596",
      "transactionType": "CALL",
      "contractName": null,
      "contractAddress": "0x036cbd53842c5426634e7929541ec2318f3dcf7e",
      "function": "approve(address,uint256)",
      "arguments": [
        "0x000000000022D473030F116dDEE9F6B43aC78BA3",
        "115792089237316195423570985008687907853269984665640564039457584007913129639935"
      ],
      "transaction": {
        "from": "0x3d04a2384f512bd49408618b16210cfc1e648569",
        "to": "0x036cbd53842c5426634e7929541ec2318f3dcf7e",
        "gas": "0x12ca9",
        "value": "0x0",
        "input": "0x095ea7b3000000000000000000000000000000000022d473030f116ddee9f6b43ac78ba3ffffffffffffffffffffffffffffffffffffffffffffffffffffffffffffffff",
        "nonce": "0x38",
        "chainId": "0x14a34"
      },
      "additionalContracts": [],
      "isFixedGasLimit": false
    },
    {
      "hash": "0x93b9c164c372460cac9c9e1bc3376540b079f0ddea5af45cf42ed2b7311c5dba",
      "transactionType": "CALL",
      "contractName": null,
      "contractAddress": "0x4200000000000000000000000000000000000006",
      "function": "approve(address,uint256)",
      "arguments": [
        "0x000000000022D473030F116dDEE9F6B43aC78BA3",
        "115792089237316195423570985008687907853269984665640564039457584007913129639935"
      ],
      "transaction": {
        "from": "0x3d04a2384f512bd49408618b16210cfc1e648569",
        "to": "0x4200000000000000000000000000000000000006",
        "gas": "0x10868",
        "value": "0x0",
        "input": "0x095ea7b3000000000000000000000000000000000022d473030f116ddee9f6b43ac78ba3ffffffffffffffffffffffffffffffffffffffffffffffffffffffffffffffff",
        "nonce": "0x39",
        "chainId": "0x14a34"
      },
      "additionalContracts": [],
      "isFixedGasLimit": false
    },
    {
      "hash": "0x3b2023dfd4c153bc7ec6fa7c920a2263e8572c27a5dd7055c288c045bdacdc57",
      "transactionType": "CALL",
      "contractName": null,
      "contractAddress": "0x000000000022d473030f116ddee9f6b43ac78ba3",
      "function": "approve(address,address,uint160,uint48)",
      "arguments": [
        "0x036CbD53842c5426634e7929541eC2318f3dCF7e",
        "0x4B2C77d209D3405F41a037Ec6c77F7F5b8e2ca80",
        "1461501637330902918203684832716283019655932542975",
        "281474976710655"
      ],
      "transaction": {
        "from": "0x3d04a2384f512bd49408618b16210cfc1e648569",
        "to": "0x000000000022d473030f116ddee9f6b43ac78ba3",
        "gas": "0x1112d",
        "value": "0x0",
        "input": "0x87517c45000000000000000000000000036cbd53842c5426634e7929541ec2318f3dcf7e0000000000000000000000004b2c77d209d3405f41a037ec6c77f7f5b8e2ca80000000000000000000000000ffffffffffffffffffffffffffffffffffffffff0000000000000000000000000000000000000000000000000000ffffffffffff",
        "nonce": "0x3a",
        "chainId": "0x14a34"
      },
      "additionalContracts": [],
      "isFixedGasLimit": false
    },
    {
      "hash": "0xbe6fd28b612287ec4c59b25ee982bf3f18f304941742c34fbe16595144d82ec0",
      "transactionType": "CALL",
      "contractName": null,
      "contractAddress": "0x000000000022d473030f116ddee9f6b43ac78ba3",
      "function": "approve(address,address,uint160,uint48)",
      "arguments": [
        "0x4200000000000000000000000000000000000006",
        "0x4B2C77d209D3405F41a037Ec6c77F7F5b8e2ca80",
        "1461501637330902918203684832716283019655932542975",
        "281474976710655"
      ],
      "transaction": {
        "from": "0x3d04a2384f512bd49408618b16210cfc1e648569",
        "to": "0x000000000022d473030f116ddee9f6b43ac78ba3",
        "gas": "0x10ff1",
        "value": "0x0",
        "input": "0x87517c4500000000000000000000000042000000000000000000000000000000000000060000000000000000000000004b2c77d209d3405f41a037ec6c77f7f5b8e2ca80000000000000000000000000ffffffffffffffffffffffffffffffffffffffff0000000000000000000000000000000000000000000000000000ffffffffffff",
        "nonce": "0x3b",
        "chainId": "0x14a34"
      },
      "additionalContracts": [],
      "isFixedGasLimit": false
    },
    {
      "hash": "0x7b77ceb931f22febdb7f6e28c0f8132d7e21e96214f38289106257bcfbca752e",
      "transactionType": "CALL",
      "contractName": null,
      "contractAddress": "0x4b2c77d209d3405f41a037ec6c77f7f5b8e2ca80",
      "function": "modifyLiquidities(bytes,uint256)",
      "arguments": [
        "0x0000000000000000000000000000000000000000000000000000000000000040000000000000000000000000000000000000000000000000000000000000008000000000000000000000000000000000000000000000000000000000000000030212120000000000000000000000000000000000000000000000000000000000000000000000000000000000000000000000000000000000000000000000000300000000000000000000000000000000000000000000000000000000000000600000000000000000000000000000000000000000000000000000000000000220000000000000000000000000000000000000000000000000000000000000026000000000000000000000000000000000000000000000000000000000000001a0000000000000000000000000036cbd53842c5426634e7929541ec2318f3dcf7e00000000000000000000000042000000000000000000000000000000000000060000000000000000000000000000000000000000000000000000000000800000000000000000000000000000000000000000000000000000000000000000003c000000000000000000000000ddda04328455ffbeebb4a4fb6ef2292c586e408000000000000000000000000000000000000000000000000000000000000122a00000000000000000000000000000000000000000000000000000000000015180000000000000000000000000000000000000000000000000000000003b9aca0000000000000000000000000000000000ffffffffffffffffffffffffffffffff00000000000000000000000000000000ffffffffffffffffffffffffffffffff0000000000000000000000003d04a2384f512bd49408618b16210cfc1e648569000000000000000000000000000000000000000000000000000000000000018000000000000000000000000000000000000000000000000000000000000000000000000000000000000000000000000000000000000000000000000000000020000000000000000000000000036cbd53842c5426634e7929541ec2318f3dcf7e00000000000000000000000000000000000000000000000000000000000000200000000000000000000000004200000000000000000000000000000000000006",
        "1770501900"
      ],
      "transaction": {
        "from": "0x3d04a2384f512bd49408618b16210cfc1e648569",
        "to": "0x4b2c77d209d3405f41a037ec6c77f7f5b8e2ca80",
        "gas": "0x7c6f7",
        "value": "0x0",
        "input": "0xdd46508f0000000000000000000000000000000000000000000000000000000000000040000000000000000000000000000000000000000000000000000000006987b70c00000000000000000000000000000000000000000000000000000000000003400000000000000000000000000000000000000000000000000000000000000040000000000000000000000000000000000000000000000000000000000000008000000000000000000000000000000000000000000000000000000000000000030212120000000000000000000000000000000000000000000000000000000000000000000000000000000000000000000000000000000000000000000000000300000000000000000000000000000000000000000000000000000000000000600000000000000000000000000000000000000000000000000000000000000220000000000000000000000000000000000000000000000000000000000000026000000000000000000000000000000000000000000000000000000000000001a0000000000000000000000000036cbd53842c5426634e7929541ec2318f3dcf7e00000000000000000000000042000000000000000000000000000000000000060000000000000000000000000000000000000000000000000000000000800000000000000000000000000000000000000000000000000000000000000000003c000000000000000000000000ddda04328455ffbeebb4a4fb6ef2292c586e408000000000000000000000000000000000000000000000000000000000000122a00000000000000000000000000000000000000000000000000000000000015180000000000000000000000000000000000000000000000000000000003b9aca0000000000000000000000000000000000ffffffffffffffffffffffffffffffff00000000000000000000000000000000ffffffffffffffffffffffffffffffff0000000000000000000000003d04a2384f512bd49408618b16210cfc1e648569000000000000000000000000000000000000000000000000000000000000018000000000000000000000000000000000000000000000000000000000000000000000000000000000000000000000000000000000000000000000000000000020000000000000000000000000036cbd53842c5426634e7929541ec2318f3dcf7e00000000000000000000000000000000000000000000000000000000000000200000000000000000000000004200000000000000000000000000000000000006",
        "nonce": "0x3c",
        "chainId": "0x14a34"
      },
      "additionalContracts": [],
      "isFixedGasLimit": false
    },
    {
      "hash": "0x1b572bd466c1ca28f36d1ab782775a4c8428e54999496f03056e3900f4ed80e3",
      "transactionType": "CALL",
      "contractName": null,
      "contractAddress": "0x4b2c77d209d3405f41a037ec6c77f7f5b8e2ca80",
      "function": "modifyLiquidities(bytes,uint256)",
      "arguments": [
        "0x0000000000000000000000000000000000000000000000000000000000000040000000000000000000000000000000000000000000000000000000000000008000000000000000000000000000000000000000000000000000000000000000030212120000000000000000000000000000000000000000000000000000000000000000000000000000000000000000000000000000000000000000000000000300000000000000000000000000000000000000000000000000000000000000600000000000000000000000000000000000000000000000000000000000000220000000000000000000000000000000000000000000000000000000000000026000000000000000000000000000000000000000000000000000000000000001a0000000000000000000000000036cbd53842c5426634e7929541ec2318f3dcf7e00000000000000000000000042000000000000000000000000000000000000060000000000000000000000000000000000000000000000000000000000000bb8000000000000000000000000000000000000000000000000000000000000003c000000000000000000000000a7a8c5d56e6b7318a3fa61b71a9905e59f47408000000000000000000000000000000000000000000000000000000000000122a00000000000000000000000000000000000000000000000000000000000015180000000000000000000000000000000000000000000000000000000003b9aca0000000000000000000000000000000000ffffffffffffffffffffffffffffffff00000000000000000000000000000000ffffffffffffffffffffffffffffffff0000000000000000000000003d04a2384f512bd49408618b16210cfc1e648569000000000000000000000000000000000000000000000000000000000000018000000000000000000000000000000000000000000000000000000000000000000000000000000000000000000000000000000000000000000000000000000020000000000000000000000000036cbd53842c5426634e7929541ec2318f3dcf7e00000000000000000000000000000000000000000000000000000000000000200000000000000000000000004200000000000000000000000000000000000006",
        "1770501900"
      ],
      "transaction": {
        "from": "0x3d04a2384f512bd49408618b16210cfc1e648569",
        "to": "0x4b2c77d209d3405f41a037ec6c77f7f5b8e2ca80",
        "gas": "0x76ac4",
        "value": "0x0",
        "input": "0xdd46508f0000000000000000000000000000000000000000000000000000000000000040000000000000000000000000000000000000000000000000000000006987b70c00000000000000000000000000000000000000000000000000000000000003400000000000000000000000000000000000000000000000000000000000000040000000000000000000000000000000000000000000000000000000000000008000000000000000000000000000000000000000000000000000000000000000030212120000000000000000000000000000000000000000000000000000000000000000000000000000000000000000000000000000000000000000000000000300000000000000000000000000000000000000000000000000000000000000600000000000000000000000000000000000000000000000000000000000000220000000000000000000000000000000000000000000000000000000000000026000000000000000000000000000000000000000000000000000000000000001a0000000000000000000000000036cbd53842c5426634e7929541ec2318f3dcf7e00000000000000000000000042000000000000000000000000000000000000060000000000000000000000000000000000000000000000000000000000000bb8000000000000000000000000000000000000000000000000000000000000003c000000000000000000000000a7a8c5d56e6b7318a3fa61b71a9905e59f47408000000000000000000000000000000000000000000000000000000000000122a00000000000000000000000000000000000000000000000000000000000015180000000000000000000000000000000000000000000000000000000003b9aca0000000000000000000000000000000000ffffffffffffffffffffffffffffffff00000000000000000000000000000000ffffffffffffffffffffffffffffffff0000000000000000000000003d04a2384f512bd49408618b16210cfc1e648569000000000000000000000000000000000000000000000000000000000000018000000000000000000000000000000000000000000000000000000000000000000000000000000000000000000000000000000000000000000000000000000020000000000000000000000000036cbd53842c5426634e7929541ec2318f3dcf7e00000000000000000000000000000000000000000000000000000000000000200000000000000000000000004200000000000000000000000000000000000006",
        "nonce": "0x3d",
        "chainId": "0x14a34"
      },
      "additionalContracts": [],
      "isFixedGasLimit": false
    },
    {
      "hash": "0xd277d527ad57554eb7b37066d86f20182220227546b842c3890aeb2f446809f6",
      "transactionType": "CALL",
      "contractName": null,
      "contractAddress": "0x4b2c77d209d3405f41a037ec6c77f7f5b8e2ca80",
      "function": "modifyLiquidities(bytes,uint256)",
      "arguments": [
        "0x0000000000000000000000000000000000000000000000000000000000000040000000000000000000000000000000000000000000000000000000000000008000000000000000000000000000000000000000000000000000000000000000030212120000000000000000000000000000000000000000000000000000000000000000000000000000000000000000000000000000000000000000000000000300000000000000000000000000000000000000000000000000000000000000600000000000000000000000000000000000000000000000000000000000000220000000000000000000000000000000000000000000000000000000000000026000000000000000000000000000000000000000000000000000000000000001a0000000000000000000000000036cbd53842c5426634e7929541ec2318f3dcf7e00000000000000000000000042000000000000000000000000000000000000060000000000000000000000000000000000000000000000000000000000000bb8000000000000000000000000000000000000000000000000000000000000003c000000000000000000000000e18ef4b29f0dcff955f6852d468bc18f121a404000000000000000000000000000000000000000000000000000000000000122a00000000000000000000000000000000000000000000000000000000000015180000000000000000000000000000000000000000000000000000000003b9aca0000000000000000000000000000000000ffffffffffffffffffffffffffffffff00000000000000000000000000000000ffffffffffffffffffffffffffffffff0000000000000000000000003d04a2384f512bd49408618b16210cfc1e648569000000000000000000000000000000000000000000000000000000000000018000000000000000000000000000000000000000000000000000000000000000000000000000000000000000000000000000000000000000000000000000000020000000000000000000000000036cbd53842c5426634e7929541ec2318f3dcf7e00000000000000000000000000000000000000000000000000000000000000200000000000000000000000004200000000000000000000000000000000000006",
        "1770501900"
      ],
      "transaction": {
        "from": "0x3d04a2384f512bd49408618b16210cfc1e648569",
        "to": "0x4b2c77d209d3405f41a037ec6c77f7f5b8e2ca80",
        "gas": "0x76ac4",
        "value": "0x0",
        "input": "0xdd46508f0000000000000000000000000000000000000000000000000000000000000040000000000000000000000000000000000000000000000000000000006987b70c00000000000000000000000000000000000000000000000000000000000003400000000000000000000000000000000000000000000000000000000000000040000000000000000000000000000000000000000000000000000000000000008000000000000000000000000000000000000000000000000000000000000000030212120000000000000000000000000000000000000000000000000000000000000000000000000000000000000000000000000000000000000000000000000300000000000000000000000000000000000000000000000000000000000000600000000000000000000000000000000000000000000000000000000000000220000000000000000000000000000000000000000000000000000000000000026000000000000000000000000000000000000000000000000000000000000001a0000000000000000000000000036cbd53842c5426634e7929541ec2318f3dcf7e00000000000000000000000042000000000000000000000000000000000000060000000000000000000000000000000000000000000000000000000000000bb8000000000000000000000000000000000000000000000000000000000000003c000000000000000000000000e18ef4b29f0dcff955f6852d468bc18f121a404000000000000000000000000000000000000000000000000000000000000122a00000000000000000000000000000000000000000000000000000000000015180000000000000000000000000000000000000000000000000000000003b9aca0000000000000000000000000000000000ffffffffffffffffffffffffffffffff00000000000000000000000000000000ffffffffffffffffffffffffffffffff0000000000000000000000003d04a2384f512bd49408618b16210cfc1e648569000000000000000000000000000000000000000000000000000000000000018000000000000000000000000000000000000000000000000000000000000000000000000000000000000000000000000000000000000000000000000000000020000000000000000000000000036cbd53842c5426634e7929541ec2318f3dcf7e00000000000000000000000000000000000000000000000000000000000000200000000000000000000000004200000000000000000000000000000000000006",
        "nonce": "0x3e",
        "chainId": "0x14a34"
      },
      "additionalContracts": [],
      "isFixedGasLimit": false
    }
  ],
  "receipts": [
    {
      "status": "0x1",
      "cumulativeGasUsed": "0x32f50c",
      "logs": [
        {
          "address": "0x036cbd53842c5426634e7929541ec2318f3dcf7e",
          "topics": [
            "0x8c5be1e5ebec7d5bd14f71427d1e84f3dd0314c0f7b2291e5b200ac8c7c3b925",
            "0x0000000000000000000000003d04a2384f512bd49408618b16210cfc1e648569",
            "0x000000000000000000000000000000000022d473030f116ddee9f6b43ac78ba3"
          ],
          "data": "0xffffffffffffffffffffffffffffffffffffffffffffffffffffffffffffffff",
          "blockHash": "0x8844c366f4153378e1523312c3d86194f51735ed73f39148c7425322fe28bf8d",
          "blockNumber": "0x23a2b96",
          "blockTimestamp": "0x6987b60c",
          "transactionHash": "0x1dde061bccbfa8ac1b7daf5530690f3bd6f14a68af5ae52f678eb307bc045596",
          "transactionIndex": "0xf",
          "logIndex": "0x86",
          "removed": false
        }
      ],
      "logsBloom": "0x00000000040000000000000000000000000000000000000000000000000000000000000000000000000000000000000000000000800400000000000000200000000000000000000000004000000000000000000000000800000000000000000800000000000000000000000000000000000000000000000000000000000000000000000000000000000000000000000000000000000000000000000000000000020000000000000000000000000000000000000100000000000000000000000000000000000000000000000000000000000000000000000000000000000000000010000000000000000008000020000000000000000000000000000000000000",
      "type": "0x2",
      "transactionHash": "0x1dde061bccbfa8ac1b7daf5530690f3bd6f14a68af5ae52f678eb307bc045596",
      "transactionIndex": "0xf",
      "blockHash": "0x8844c366f4153378e1523312c3d86194f51735ed73f39148c7425322fe28bf8d",
      "blockNumber": "0x23a2b96",
      "gasUsed": "0xd9ad",
      "effectiveGasPrice": "0x124f80",
      "blobGasUsed": "0x79e0",
      "from": "0x3d04a2384f512bd49408618b16210cfc1e648569",
      "to": "0x036cbd53842c5426634e7929541ec2318f3dcf7e",
      "contractAddress": null,
      "daFootprintGasScalar": "0x138",
      "l1BaseFeeScalar": "0x44d",
      "l1BlobBaseFee": "0x3c22dc7",
      "l1BlobBaseFeeScalar": "0xa118b",
      "l1Fee": "0x15c83629f",
      "l1GasPrice": "0x390dfe91",
      "l1GasUsed": "0x640"
    },
    {
      "status": "0x1",
      "cumulativeGasUsed": "0x139bd9",
      "logs": [
        {
          "address": "0x4200000000000000000000000000000000000006",
          "topics": [
            "0x8c5be1e5ebec7d5bd14f71427d1e84f3dd0314c0f7b2291e5b200ac8c7c3b925",
            "0x0000000000000000000000003d04a2384f512bd49408618b16210cfc1e648569",
            "0x000000000000000000000000000000000022d473030f116ddee9f6b43ac78ba3"
          ],
          "data": "0xffffffffffffffffffffffffffffffffffffffffffffffffffffffffffffffff",
          "blockHash": "0x469c793b107067f72c7849183b2362aba3cc0952463beaf805db78daf52b57b0",
          "blockNumber": "0x23a2b97",
          "blockTimestamp": "0x6987b60e",
          "transactionHash": "0x93b9c164c372460cac9c9e1bc3376540b079f0ddea5af45cf42ed2b7311c5dba",
          "transactionIndex": "0x5",
          "logIndex": "0x16",
          "removed": false
        }
      ],
      "logsBloom": "0x00000000000000000000000000000000000000000000000000040000000000000000000000000000000000100000000000000000800400000000000000200000000000000000000000004000000000000000000000000800000000000000000000000000000000000000000000000000000000000000000000000000000000000000000000000000000000000000000000000000002000000000000000000000020000000000000000000000000000000000000100000000000000000000000000000000000000000000000000000000000000000000000000000000000000000010000000000000000008000000000000000000000000000000000000000000",
      "type": "0x2",
      "transactionHash": "0x93b9c164c372460cac9c9e1bc3376540b079f0ddea5af45cf42ed2b7311c5dba",
      "transactionIndex": "0x5",
      "blockHash": "0x469c793b107067f72c7849183b2362aba3cc0952463beaf805db78daf52b57b0",
      "blockNumber": "0x23a2b97",
      "gasUsed": "0xb4cb",
      "effectiveGasPrice": "0x124f80",
      "blobGasUsed": "0x79e0",
      "from": "0x3d04a2384f512bd49408618b16210cfc1e648569",
      "to": "0x4200000000000000000000000000000000000006",
      "contractAddress": null,
      "daFootprintGasScalar": "0x138",
      "l1BaseFeeScalar": "0x44d",
      "l1BlobBaseFee": "0x3c22dc7",
      "l1BlobBaseFeeScalar": "0xa118b",
      "l1Fee": "0x15c83629f",
      "l1GasPrice": "0x390dfe91",
      "l1GasUsed": "0x640"
    },
    {
      "status": "0x1",
      "cumulativeGasUsed": "0x2e2c88",
      "logs": [
        {
          "address": "0x000000000022d473030f116ddee9f6b43ac78ba3",
          "topics": [
            "0xda9fa7c1b00402c17d0161b249b1ab8bbec047c5a52207b9c112deffd817036b",
            "0x0000000000000000000000003d04a2384f512bd49408618b16210cfc1e648569",
            "0x000000000000000000000000036cbd53842c5426634e7929541ec2318f3dcf7e",
            "0x0000000000000000000000004b2c77d209d3405f41a037ec6c77f7f5b8e2ca80"
          ],
          "data": "0x000000000000000000000000ffffffffffffffffffffffffffffffffffffffff0000000000000000000000000000000000000000000000000000ffffffffffff",
          "blockHash": "0xbd9e6a72e9e62f1584bf6b190103c5dd2f802e369094bdb4e99722178f7835eb",
          "blockNumber": "0x23a2b98",
          "blockTimestamp": "0x6987b610",
          "transactionHash": "0x3b2023dfd4c153bc7ec6fa7c920a2263e8572c27a5dd7055c288c045bdacdc57",
          "transactionIndex": "0x12",
          "logIndex": "0x80",
          "removed": false
        }
      ],
      "logsBloom": "0x00010000000000010000000000000000000000000000000000000000000000000000000000000000000000000000000000000000000400000008000010080000000000000000000000000000000000000000000000000000000000000000000000000000000000000000000000000000000000000000000000000000000000000020000040000000000000000000000000000000000000000000000000000000000000000000000000000000000000000000000100000000100000080000000000000000000000000000000000000000000000000000000040000000000000000000000000000000000008000040000000000000000000000000000000000400",
      "type": "0x2",
      "transactionHash": "0x3b2023dfd4c153bc7ec6fa7c920a2263e8572c27a5dd7055c288c045bdacdc57",
      "transactionIndex": "0x12",
      "blockHash": "0xbd9e6a72e9e62f1584bf6b190103c5dd2f802e369094bdb4e99722178f7835eb",
      "blockNumber": "0x23a2b98",
      "gasUsed": "0xbaca",
      "effectiveGasPrice": "0x124f80",
      "blobGasUsed": "0x8880",
      "from": "0x3d04a2384f512bd49408618b16210cfc1e648569",
      "to": "0x000000000022d473030f116ddee9f6b43ac78ba3",
      "contractAddress": null,
      "daFootprintGasScalar": "0x138",
      "l1BaseFeeScalar": "0x44d",
      "l1BlobBaseFee": "0x3c22dc7",
      "l1BlobBaseFeeScalar": "0xa118b",
      "l1Fee": "0x186ea9e5e",
      "l1GasPrice": "0x390dfe91",
      "l1GasUsed": "0x702"
    },
    {
      "status": "0x1",
      "cumulativeGasUsed": "0x5d600",
      "logs": [
        {
          "address": "0x000000000022d473030f116ddee9f6b43ac78ba3",
          "topics": [
            "0xda9fa7c1b00402c17d0161b249b1ab8bbec047c5a52207b9c112deffd817036b",
            "0x0000000000000000000000003d04a2384f512bd49408618b16210cfc1e648569",
            "0x0000000000000000000000004200000000000000000000000000000000000006",
            "0x0000000000000000000000004b2c77d209d3405f41a037ec6c77f7f5b8e2ca80"
          ],
          "data": "0x000000000000000000000000ffffffffffffffffffffffffffffffffffffffff0000000000000000000000000000000000000000000000000000ffffffffffff",
          "blockHash": "0xfdbc639027721196baf098c75762364cf8d0fa9ebf395f98c06f203c29a49d22",
          "blockNumber": "0x23a2b9a",
          "blockTimestamp": "0x6987b614",
          "transactionHash": "0xbe6fd28b612287ec4c59b25ee982bf3f18f304941742c34fbe16595144d82ec0",
          "transactionIndex": "0x3",
          "logIndex": "0x4",
          "removed": false
        }
      ],
      "logsBloom": "0x00010000000000010000000000000000000000000000000000000000000000000000000000000000000000000000000000000000000400000028000010080000000000000000000000000000000000000000000000000000000000000000000000000000000000000000000000000000000010000000000000000000000000000020000000000000000000000000000000000000000000000000000000000000000000000000000000000000000000000000000100000000000000080000000000000000000004000000000000000000000000000000000040000000000000000000000000000000000008000000000000000000000000000000000000000400",
      "type": "0x2",
      "transactionHash": "0xbe6fd28b612287ec4c59b25ee982bf3f18f304941742c34fbe16595144d82ec0",
      "transactionIndex": "0x3",
      "blockHash": "0xfdbc639027721196baf098c75762364cf8d0fa9ebf395f98c06f203c29a49d22",
      "blockNumber": "0x23a2b9a",
      "gasUsed": "0xb9f2",
      "effectiveGasPrice": "0x124f80",
      "blobGasUsed": "0x7ec0",
      "from": "0x3d04a2384f512bd49408618b16210cfc1e648569",
      "to": "0x000000000022d473030f116ddee9f6b43ac78ba3",
      "contractAddress": null,
      "daFootprintGasScalar": "0x138",
      "l1BaseFeeScalar": "0x44d",
      "l1BlobBaseFee": "0x365c860",
      "l1BlobBaseFeeScalar": "0xa118b",
      "l1Fee": "0x160e1e5a3",
      "l1GasPrice": "0x402ca640",
      "l1GasUsed": "0x68a"
    },
    {
      "status": "0x1",
      "cumulativeGasUsed": "0x16992b",
      "logs": [
        {
          "address": "0x4b2c77d209d3405f41a037ec6c77f7f5b8e2ca80",
          "topics": [
            "0xddf252ad1be2c89b69c2b068fc378daa952ba7f163c4a11628f55a4df523b3ef",
            "0x0000000000000000000000000000000000000000000000000000000000000000",
            "0x0000000000000000000000003d04a2384f512bd49408618b16210cfc1e648569",
            "0x0000000000000000000000000000000000000000000000000000000000004256"
          ],
          "data": "0x",
          "blockHash": "0x3dfd50af669f81659844a07cbf1925f2246fe44baa1b42bdb362a9c5cf29d1dc",
          "blockNumber": "0x23a2b9c",
          "blockTimestamp": "0x6987b618",
          "transactionHash": "0x7b77ceb931f22febdb7f6e28c0f8132d7e21e96214f38289106257bcfbca752e",
          "transactionIndex": "0x9",
          "logIndex": "0x1e",
          "removed": false
        },
        {
          "address": "0x05e73354cfdd6745c338b50bcfdfa3aa6fa03408",
          "topics": [
            "0xf208f4912782fd25c7f114ca3723a2d5dd6f3bcc3ac8db5af63baa85f711d5ec",
            "0x7ce3ba186e2a5404ec0e07444a37e626dca8c4822ea8a13a9a8de34de1bd5f3a",
            "0x0000000000000000000000004b2c77d209d3405f41a037ec6c77f7f5b8e2ca80"
          ],
          "data": "0x00000000000000000000000000000000000000000000000000000000000122a00000000000000000000000000000000000000000000000000000000000015180000000000000000000000000000000000000000000000000000000003b9aca000000000000000000000000000000000000000000000000000000000000004256",
          "blockHash": "0x3dfd50af669f81659844a07cbf1925f2246fe44baa1b42bdb362a9c5cf29d1dc",
          "blockNumber": "0x23a2b9c",
          "blockTimestamp": "0x6987b618",
          "transactionHash": "0x7b77ceb931f22febdb7f6e28c0f8132d7e21e96214f38289106257bcfbca752e",
          "transactionIndex": "0x9",
          "logIndex": "0x1f",
          "removed": false
        },
        {
          "address": "0x036cbd53842c5426634e7929541ec2318f3dcf7e",
          "topics": [
            "0xddf252ad1be2c89b69c2b068fc378daa952ba7f163c4a11628f55a4df523b3ef",
            "0x0000000000000000000000003d04a2384f512bd49408618b16210cfc1e648569",
            "0x00000000000000000000000005e73354cfdd6745c338b50bcfdfa3aa6fa03408"
          ],
          "data": "0x0000000000000000000000000000000000000000000000000000000000a6dda8",
          "blockHash": "0x3dfd50af669f81659844a07cbf1925f2246fe44baa1b42bdb362a9c5cf29d1dc",
          "blockNumber": "0x23a2b9c",
          "blockTimestamp": "0x6987b618",
          "transactionHash": "0x7b77ceb931f22febdb7f6e28c0f8132d7e21e96214f38289106257bcfbca752e",
          "transactionIndex": "0x9",
          "logIndex": "0x20",
          "removed": false
        }
      ],
      "logsBloom": "0x00000000040000010000000000000000000000000000000000000000000000000100000100000000000000000000000000000000000400000008000010400802000000010010000000000008000000000000000000900000000000008000000800000000020000400000000000000800000000000000000000000010000000000000000005000000000000000000000000000000000000000000000000000000000004000000000000000000000000000000000100000000000000000000000000000002001000000000000000000000008000000000000000000000000020000000000000000000000008000820000004000000000000000000000000000000",
      "type": "0x2",
      "transactionHash": "0x7b77ceb931f22febdb7f6e28c0f8132d7e21e96214f38289106257bcfbca752e",
      "transactionIndex": "0x9",
      "blockHash": "0x3dfd50af669f81659844a07cbf1925f2246fe44baa1b42bdb362a9c5cf29d1dc",
      "blockNumber": "0x23a2b9c",
      "gasUsed": "0x5a16d",
      "effectiveGasPrice": "0x124f80",
      "blobGasUsed": "0x13458",
      "from": "0x3d04a2384f512bd49408618b16210cfc1e648569",
      "to": "0x4b2c77d209d3405f41a037ec6c77f7f5b8e2ca80",
      "contractAddress": null,
      "daFootprintGasScalar": "0x138",
      "l1BaseFeeScalar": "0x44d",
      "l1BlobBaseFee": "0x365c860",
      "l1BlobBaseFeeScalar": "0xa118b",
      "l1Fee": "0x35705c07b",
      "l1GasPrice": "0x402ca640",
      "l1GasUsed": "0xfd8"
    },
    {
      "status": "0x1",
      "cumulativeGasUsed": "0x7680b",
      "logs": [
        {
          "address": "0x4b2c77d209d3405f41a037ec6c77f7f5b8e2ca80",
          "topics": [
            "0xddf252ad1be2c89b69c2b068fc378daa952ba7f163c4a11628f55a4df523b3ef",
            "0x0000000000000000000000000000000000000000000000000000000000000000",
            "0x0000000000000000000000003d04a2384f512bd49408618b16210cfc1e648569",
            "0x0000000000000000000000000000000000000000000000000000000000004257"
          ],
          "data": "0x",
          "blockHash": "0x684c06d89cd171dfebc4f8f32e28d404d5060bcca6e948ff12182158264e694e",
          "blockNumber": "0x23a2bb3",
          "blockTimestamp": "0x6987b646",
          "transactionHash": "0x1b572bd466c1ca28f36d1ab782775a4c8428e54999496f03056e3900f4ed80e3",
          "transactionIndex": "0x2",
          "logIndex": "0x2",
          "removed": false
        },
        {
          "address": "0x05e73354cfdd6745c338b50bcfdfa3aa6fa03408",
          "topics": [
            "0xf208f4912782fd25c7f114ca3723a2d5dd6f3bcc3ac8db5af63baa85f711d5ec",
            "0x2af58369d1041b5dc7ff43a45c021cedddf76faf1c017d1252565c7dcb7dda39",
            "0x0000000000000000000000004b2c77d209d3405f41a037ec6c77f7f5b8e2ca80"
          ],
          "data": "0x00000000000000000000000000000000000000000000000000000000000122a00000000000000000000000000000000000000000000000000000000000015180000000000000000000000000000000000000000000000000000000003b9aca000000000000000000000000000000000000000000000000000000000000004257",
          "blockHash": "0x684c06d89cd171dfebc4f8f32e28d404d5060bcca6e948ff12182158264e694e",
          "blockNumber": "0x23a2bb3",
          "blockTimestamp": "0x6987b646",
          "transactionHash": "0x1b572bd466c1ca28f36d1ab782775a4c8428e54999496f03056e3900f4ed80e3",
          "transactionIndex": "0x2",
          "logIndex": "0x3",
          "removed": false
        },
        {
          "address": "0x036cbd53842c5426634e7929541ec2318f3dcf7e",
          "topics": [
            "0xddf252ad1be2c89b69c2b068fc378daa952ba7f163c4a11628f55a4df523b3ef",
            "0x0000000000000000000000003d04a2384f512bd49408618b16210cfc1e648569",
            "0x00000000000000000000000005e73354cfdd6745c338b50bcfdfa3aa6fa03408"
          ],
          "data": "0x0000000000000000000000000000000000000000000000000000000000a6dda8",
          "blockHash": "0x684c06d89cd171dfebc4f8f32e28d404d5060bcca6e948ff12182158264e694e",
          "blockNumber": "0x23a2bb3",
          "blockTimestamp": "0x6987b646",
          "transactionHash": "0x1b572bd466c1ca28f36d1ab782775a4c8428e54999496f03056e3900f4ed80e3",
          "transactionIndex": "0x2",
          "logIndex": "0x4",
          "removed": false
        }
      ],
      "logsBloom": "0x00000000040000010000000000000000000000000000000000000000000000000100000100000000000000000000000000000000000408000008000010000800000000000010000000000008000000000000000000120000000002008000000800000000020000000000000000000800000000000000000000000010000000000000000005000000000000000400000000000000000000000000000000000000000004000000000000000000000000000000000100000000000000000040000000000002001000000000000000000000000000000000008000000000000020000000000000000000000008000820000004000000000000000000000000000000",
      "type": "0x2",
      "transactionHash": "0x1b572bd466c1ca28f36d1ab782775a4c8428e54999496f03056e3900f4ed80e3",
      "transactionIndex": "0x2",
      "blockHash": "0x684c06d89cd171dfebc4f8f32e28d404d5060bcca6e948ff12182158264e694e",
      "blockNumber": "0x23a2bb3",
      "gasUsed": "0x55ead",
      "effectiveGasPrice": "0x124f80",
      "blobGasUsed": "0x136c8",
      "from": "0x3d04a2384f512bd49408618b16210cfc1e648569",
      "to": "0x4b2c77d209d3405f41a037ec6c77f7f5b8e2ca80",
      "contractAddress": null,
      "daFootprintGasScalar": "0x138",
      "l1BaseFeeScalar": "0x44d",
      "l1BlobBaseFee": "0x36f9824",
      "l1BlobBaseFeeScalar": "0xa118b",
      "l1Fee": "0x342d482cd",
      "l1GasPrice": "0x38fe0df8",
      "l1GasUsed": "0xff3"
    },
    {
      "status": "0x1",
      "cumulativeGasUsed": "0x3cbb41",
      "logs": [
        {
          "address": "0x4b2c77d209d3405f41a037ec6c77f7f5b8e2ca80",
          "topics": [
            "0xddf252ad1be2c89b69c2b068fc378daa952ba7f163c4a11628f55a4df523b3ef",
            "0x0000000000000000000000000000000000000000000000000000000000000000",
            "0x0000000000000000000000003d04a2384f512bd49408618b16210cfc1e648569",
            "0x0000000000000000000000000000000000000000000000000000000000004258"
          ],
          "data": "0x",
          "blockHash": "0xd5ca9ee777448c11672aeddaf35301c072de659bb66359fccb80e67db986ccd7",
          "blockNumber": "0x23a2bb4",
          "blockTimestamp": "0x6987b648",
          "transactionHash": "0xd277d527ad57554eb7b37066d86f20182220227546b842c3890aeb2f446809f6",
          "transactionIndex": "0xd",
          "logIndex": "0xad",
          "removed": false
        },
        {
          "address": "0x05e73354cfdd6745c338b50bcfdfa3aa6fa03408",
          "topics": [
            "0xf208f4912782fd25c7f114ca3723a2d5dd6f3bcc3ac8db5af63baa85f711d5ec",
            "0xd5d7e6d6622490bfae3e465ba2079918631887a13c3e1388a10d1d56bd989a2a",
            "0x0000000000000000000000004b2c77d209d3405f41a037ec6c77f7f5b8e2ca80"
          ],
          "data": "0x00000000000000000000000000000000000000000000000000000000000122a00000000000000000000000000000000000000000000000000000000000015180000000000000000000000000000000000000000000000000000000003b9aca000000000000000000000000000000000000000000000000000000000000004258",
          "blockHash": "0xd5ca9ee777448c11672aeddaf35301c072de659bb66359fccb80e67db986ccd7",
          "blockNumber": "0x23a2bb4",
          "blockTimestamp": "0x6987b648",
          "transactionHash": "0xd277d527ad57554eb7b37066d86f20182220227546b842c3890aeb2f446809f6",
          "transactionIndex": "0xd",
          "logIndex": "0xae",
          "removed": false
        },
        {
          "address": "0x036cbd53842c5426634e7929541ec2318f3dcf7e",
          "topics": [
            "0xddf252ad1be2c89b69c2b068fc378daa952ba7f163c4a11628f55a4df523b3ef",
            "0x0000000000000000000000003d04a2384f512bd49408618b16210cfc1e648569",
            "0x00000000000000000000000005e73354cfdd6745c338b50bcfdfa3aa6fa03408"
          ],
          "data": "0x0000000000000000000000000000000000000000000000000000000000a6dda8",
          "blockHash": "0xd5ca9ee777448c11672aeddaf35301c072de659bb66359fccb80e67db986ccd7",
          "blockNumber": "0x23a2bb4",
          "blockTimestamp": "0x6987b648",
          "transactionHash": "0xd277d527ad57554eb7b37066d86f20182220227546b842c3890aeb2f446809f6",
          "transactionIndex": "0xd",
          "logIndex": "0xaf",
          "removed": false
        }
      ],
      "logsBloom": "0x00000000040000010000000000000000000000000000000000000000000000000100000100000000000000000000000000000800000400000008000010000800000000000010000000000008000000000000000000100000000000008000000800000000020000000000000000000800000000000000000000000010000000000000000005000000000000000000000000000000000000000000000000000000020004000000000000000000000000000000000100000000000000000000000002000002001000000000004000000000000000000000000001000000000020000000000000000000000008000820000004000000080000000000000000000000",
      "type": "0x2",
      "transactionHash": "0xd277d527ad57554eb7b37066d86f20182220227546b842c3890aeb2f446809f6",
      "transactionIndex": "0xd",
      "blockHash": "0xd5ca9ee777448c11672aeddaf35301c072de659bb66359fccb80e67db986ccd7",
      "blockNumber": "0x23a2bb4",
      "gasUsed": "0x55ead",
      "effectiveGasPrice": "0x124f80",
      "blobGasUsed": "0x136c8",
      "from": "0x3d04a2384f512bd49408618b16210cfc1e648569",
      "to": "0x4b2c77d209d3405f41a037ec6c77f7f5b8e2ca80",
      "contractAddress": null,
      "daFootprintGasScalar": "0x138",
      "l1BaseFeeScalar": "0x44d",
      "l1BlobBaseFee": "0x36f9824",
      "l1BlobBaseFeeScalar": "0xa118b",
      "l1Fee": "0x342d482cd",
      "l1GasPrice": "0x38fe0df8",
      "l1GasUsed": "0xff3"
    }
  ],
  "libraries": [],
  "pending": [],
  "returns": {},
  "timestamp": 1770501704414,
  "chain": 84532,
  "commit": null
}