{
  "transactions": [
    {
      "hash": "0x758cb5143fabd226f30996589cc27b8ad36afb8ed3808c098ae5c74b3c2cc419",
      "transactionType": "CALL",
      "contractName": null,
      "contractAddress": "0x05e73354cfdd6745c338b50bcfdfa3aa6fa03408",
      "function": "initialize((address,address,uint24,int24,address),uint160)",
      "arguments": [
        "(0x036CbD53842c5426634e7929541eC2318f3dCF7e, 0x4200000000000000000000000000000000000006, 8388608, 60, 0xddda04328455FfbeeBb4a4Fb6ef2292c586E4080)",
        "4339505179874779836416"
      ],
      "transaction": {
        "from": "0x3d04a2384f512bd49408618b16210cfc1e648569",
        "to": "0x05e73354cfdd6745c338b50bcfdfa3aa6fa03408",
        "gas": "0x117ba",
        "value": "0x0",
        "input": "0x6276cbbe000000000000000000000000036cbd53842c5426634e7929541ec2318f3dcf7e00000000000000000000000042000000000000000000000000000000000000060000000000000000000000000000000000000000000000000000000000800000000000000000000000000000000000000000000000000000000000000000003c000000000000000000000000ddda04328455ffbeebb4a4fb6ef2292c586e40800000000000000000000000000000000000000000000000eb3ebb69698bd9b000",
        "nonce": "0x24",
        "chainId": "0x14a34"
      },
      "additionalContracts": [],
      "isFixedGasLimit": false
    },
    {
      "hash": "0x0f65688f5bd2c51f9cfa9c58bfbe0b900220edce7292432578450b87b9510b59",
      "transactionType": "CALL",
      "contractName": null,
      "contractAddress": "0x05e73354cfdd6745c338b50bcfdfa3aa6fa03408",
      "function": "initialize((address,address,uint24,int24,address),uint160)",
      "arguments": [
        "(0x036CbD53842c5426634e7929541eC2318f3dCF7e, 0x4200000000000000000000000000000000000006, 3000, 60, 0xA7a8c5D56E6B7318a3Fa61b71A9905e59f474080)",
        "4339505179874779836416"
      ],
      "transaction": {
        "from": "0x3d04a2384f512bd49408618b16210cfc1e648569",
        "to": "0x05e73354cfdd6745c338b50bcfdfa3aa6fa03408",
        "gas": "0x11812",
        "value": "0x0",
        "input": "0x6276cbbe000000000000000000000000036cbd53842c5426634e7929541ec2318f3dcf7e00000000000000000000000042000000000000000000000000000000000000060000000000000000000000000000000000000000000000000000000000000bb8000000000000000000000000000000000000000000000000000000000000003c000000000000000000000000a7a8c5d56e6b7318a3fa61b71a9905e59f4740800000000000000000000000000000000000000000000000eb3ebb69698bd9b000",
        "nonce": "0x25",
        "chainId": "0x14a34"
      },
      "additionalContracts": [],
      "isFixedGasLimit": false
    },
    {
      "hash": "0x186efe852a55079c3eadf6390b2032badbe37da98aa45cc0b62d7ef765cbcbe2",
      "transactionType": "CALL",
      "contractName": null,
      "contractAddress": "0x05e73354cfdd6745c338b50bcfdfa3aa6fa03408",
      "function": "initialize((address,address,uint24,int24,address),uint160)",
      "arguments": [
        "(0x036CbD53842c5426634e7929541eC2318f3dCF7e, 0x4200000000000000000000000000000000000006, 3000, 60, 0xE18ef4b29F0DCFf955F6852d468bC18f121a4040)",
        "4339505179874779836416"
      ],
      "transaction": {
        "from": "0x3d04a2384f512bd49408618b16210cfc1e648569",
        "to": "0x05e73354cfdd6745c338b50bcfdfa3aa6fa03408",
        "gas": "0x11812",
        "value": "0x0",
        "input": "0x6276cbbe000000000000000000000000036cbd53842c5426634e7929541ec2318f3dcf7e00000000000000000000000042000000000000000000000000000000000000060000000000000000000000000000000000000000000000000000000000000bb8000000000000000000000000000000000000000000000000000000000000003c000000000000000000000000e18ef4b29f0dcff955f6852d468bc18f121a40400000000000000000000000000000000000000000000000eb3ebb69698bd9b000",
        "nonce": "0x26",
        "chainId": "0x14a34"
      },
      "additionalContracts": [],
      "isFixedGasLimit": false
    }
  ],
  "receipts": [
    {
      "status": "0x1",
      "cumulativeGasUsed": "0x190a3b8",
      "logs": [
        {
          "address": "0x05e73354cfdd6745c338b50bcfdfa3aa6fa03408",
          "topics": [
            "0xdd466e674ea557f56295e2d0218a125ea4b4f0f6f3307b95f85e6110838d6438",
            "0x7ce3ba186e2a5404ec0e07444a37e626dca8c4822ea8a13a9a8de34de1bd5f3a",
            "0x000000000000000000000000036cbd53842c5426634e7929541ec2318f3dcf7e",
            "0x0000000000000000000000004200000000000000000000000000000000000006"
          ],
          "data": "0x0000000000000000000000000000000000000000000000000000000000800000000000000000000000000000000000000000000000000000000000000000003c000000000000000000000000ddda04328455ffbeebb4a4fb6ef2292c586e40800000000000000000000000000000000000000000000000eb3ebb69698bd9b000fffffffffffffffffffffffffffffffffffffffffffffffffffffffffffae5ad",
          "blockHash": "0xef0b815001c65b6d75c953042a72212876e321f14c4a5d00065fb4fd9e590e8a",
          "blockNumber": "0x23963ce",
          "blockTimestamp": "0x6986267c",
          "transactionHash": "0x758cb5143fabd226f30996589cc27b8ad36afb8ed3808c098ae5c74b3c2cc419",
          "transactionIndex": "0x10",
          "logIndex": "0x40",
          "removed": false
        }
      ],
      "logsBloom": "0x00000000000000000000000000000000000000000000000000000000000000000000000100000000000000000000000000000000000000000020000000400002000000010000000000000000000000000000000000000000000000000000000000000000000000000000000000000000000010000000000000000000000000000000000044000008000000000000000000000001000000000000000000200000000000000000000000000000000000000000000000000000100000000000000000000000001004000000000000000000000000000000000000000000000000000000000000000000000000000040000000000000000000000000000000000000",
      "type": "0x2",
      "transactionHash": "0x758cb5143fabd226f30996589cc27b8ad36afb8ed3808c098ae5c74b3c2cc419",
      "transactionIndex": "0x10",
      "blockHash": "0xef0b815001c65b6d75c953042a72212876e321f14c4a5d00065fb4fd9e590e8a",
      "blockNumber": "0x23963ce",
      "gasUsed": "0xca85",
      "effectiveGasPrice": "0x124ff3",
      "blobGasUsed": "0xa218",
      "from": "0x3d04a2384f512bd49408618b16210cfc1e648569",
      "to": "0x05e73354cfdd6745c338b50bcfdfa3aa6fa03408",
      "contractAddress": null,
      "daFootprintGasScalar": "0x138",
      "l1BaseFeeScalar": "0x44d",
      "l1BlobBaseFee": "0x38ddcb8",
      "l1BlobBaseFeeScalar": "0xa118b",
      "l1Fee": "0x1d2d5c982",
      "l1GasPrice": "0x40c2b7fb",
      "l1GasUsed": "0x85e"
    },
    {
      "status": "0x1",
      "cumulativeGasUsed": "0x746800",
      "logs": [
        {
          "address": "0x05e73354cfdd6745c338b50bcfdfa3aa6fa03408",
          "topics": [
            "0xdd466e674ea557f56295e2d0218a125ea4b4f0f6f3307b95f85e6110838d6438",
            "0x2af58369d1041b5dc7ff43a45c021cedddf76faf1c017d1252565c7dcb7dda39",
            "0x000000000000000000000000036cbd53842c5426634e7929541ec2318f3dcf7e",
            "0x0000000000000000000000004200000000000000000000000000000000000006"
          ],
          "data": "0x0000000000000000000000000000000000000000000000000000000000000bb8000000000000000000000000000000000000000000000000000000000000003c000000000000000000000000a7a8c5d56e6b7318a3fa61b71a9905e59f4740800000000000000000000000000000000000000000000000eb3ebb69698bd9b000fffffffffffffffffffffffffffffffffffffffffffffffffffffffffffae5ad",
          "blockHash": "0xb3235bce619de6330be17869dbd0c3b768f10cc8a4caf1736b725723a5ebda81",
          "blockNumber": "0x23963d0",
          "blockTimestamp": "0x69862680",
          "transactionHash": "0x0f65688f5bd2c51f9cfa9c58bfbe0b900220edce7292432578450b87b9510b59",
          "transactionIndex": "0x8",
          "logIndex": "0x2f",
          "removed": false
        }
      ],
      "logsBloom": "0x00000000000000000000000000000000000000000000000000000000000000000000000100000000000000000000000000000000000008000020000000000000000000000000000000000000000000000000000000020000000002000000000000000000000000000000000000000000000010000000000000000000000000000000000044000008000000000000000000000001000000000000000000200000000000000000000000000000000000000000000000000000100000000000000000000000001004000000000000000000000000000000000000000000000000000000000000000000000000000040000000000000000000000000000000000000",
      "type": "0x2",
      "transactionHash": "0x0f65688f5bd2c51f9cfa9c58bfbe0b900220edce7292432578450b87b9510b59",
      "transactionIndex": "0x8",
      "blockHash": "0xb3235bce619de6330be17869dbd0c3b768f10cc8a4caf1736b725723a5ebda81",
      "blockNumber": "0x23963d0",
      "gasUsed": "0xcac5",
      "effectiveGasPrice": "0x125b3b",
      "blobGasUsed": "0xa830",
      "from": "0x3d04a2384f512bd49408618b16210cfc1e648569",
      "to": "0x05e73354cfdd6745c338b50bcfdfa3aa6fa03408",
      "contractAddress": null,
      "daFootprintGasScalar": "0x138",
      "l1BaseFeeScalar": "0x44d",
      "l1BlobBaseFee": "0x38ddcb8",
      "l1BlobBaseFeeScalar": "0xa118b",
      "l1Fee": "0x1e16a59ec",
      "l1GasPrice": "0x40c2b7fb",
      "l1GasUsed": "0x8a1"
    },
    {
      "status": "0x1",
      "cumulativeGasUsed": "0x12774f6",
      "logs": [
        {
          "address": "0x05e73354cfdd6745c338b50bcfdfa3aa6fa03408",
          "topics": [
            "0xdd466e674ea557f56295e2d0218a125ea4b4f0f6f3307b95f85e6110838d6438",
            "0xd5d7e6d6622490bfae3e465ba2079918631887a13c3e1388a10d1d56bd989a2a",
            "0x000000000000000000000000036cbd53842c5426634e7929541ec2318f3dcf7e",
            "0x0000000000000000000000004200000000000000000000000000000000000006"
          ],
          "data": "0x0000000000000000000000000000000000000000000000000000000000000bb8000000000000000000000000000000000000000000000000000000000000003c000000000000000000000000e18ef4b29f0dcff955f6852d468bc18f121a40400000000000000000000000000000000000000000000000eb3ebb69698bd9b000fffffffffffffffffffffffffffffffffffffffffffffffffffffffffffae5ad",
          "blockHash": "0x1a9fd5beaf6e7fde9a52aa2238cf849f41bd5b6174fa46422a6506e92faf9db7",
          "blockNumber": "0x23963d1",
          "blockTimestamp": "0x69862682",
          "transactionHash": "0x186efe852a55079c3eadf6390b2032badbe37da98aa45cc0b62d7ef765cbcbe2",
          "transactionIndex": "0x11",
          "logIndex": "0x6e",
          "removed": false
        }
      ],
      "logsBloom": "0x00000000000000000000000000000000000000000000000000000000000000000000000100000000000000000000000000000000000000000020000000000000000000000000000000000000000000000000000000000000000000000000000000000000000000000000000000000000000010000000000000000000000000000000000044000008000000000000000000000001000000000000000000200000020000000000000000000000000000000000000000000000100000000000000002000000001004000000004000000000000000000000000000000000000000000000000000000000000000000040000000000000000000000000000000000000",
      "type": "0x2",
      "transactionHash": "0x186efe852a55079c3eadf6390b2032badbe37da98aa45cc0b62d7ef765cbcbe2",
      "transactionIndex": "0x11",
      "blockHash": "0x1a9fd5beaf6e7fde9a52aa2238cf849f41bd5b6174fa46422a6506e92faf9db7",
      "blockNumber": "0x23963d1",
      "gasUsed": "0xcac5",
      "effectiveGasPrice": "0x126027",
      "blobGasUsed": "0xa830",
      "from": "0x3d04a2384f512bd49408618b16210cfc1e648569",
      "to": "0x05e73354cfdd6745c338b50bcfdfa3aa6fa03408",
      "contractAddress": null,
      "daFootprintGasScalar": "0x138",
      "l1BaseFeeScalar": "0x44d",
      "l1BlobBaseFee": "0x38ddcb8",
      "l1BlobBaseFeeScalar": "0xa118b",
      "l1Fee": "0x1e16a59ec",
      "l1GasPrice": "0x40c2b7fb",
      "l1GasUsed": "0x8a1"
    }
  ],
  "libraries": [],
  "pending": [],
  "returns": {},
  "timestamp": 1770399362435,
  "chain": 84532,
  "commit": null
}