{
  "transactions": [
    {
      "hash": "0xc5ca2029336cfb96dec92f1e3dd588c05f530923f12179d1fdabfff99ab9f363",
      "transactionType": "CALL",
      "contractName": null,
      "contractAddress": "0x05e73354cfdd6745c338b50bcfdfa3aa6fa03408",
      "function": "initialize((address,address,uint24,int24,address),uint160)",
      "arguments": [
        "(0x036CbD53842c5426634e7929541eC2318f3dCF7e, 0x4200000000000000000000000000000000000006, 8388608, 60, 0x36BA2530cF919010701cd8e10AcFA1540B6e8080)",
        "4339505179874779836416"
      ],
      "transaction": {
        "from": "0x3d04a2384f512bd49408618b16210cfc1e648569",
        "to": "0x05e73354cfdd6745c338b50bcfdfa3aa6fa03408",
        "gas": "0x117ba",
        "value": "0x0",
        "input": "0x6276cbbe000000000000000000000000036cbd53842c5426634e7929541ec2318f3dcf7e00000000000000000000000042000000000000000000000000000000000000060000000000000000000000000000000000000000000000000000000000800000000000000000000000000000000000000000000000000000000000000000003c00000000000000000000000036ba2530cf919010701cd8e10acfa1540b6e80800000000000000000000000000000000000000000000000eb3ebb69698bd9b000",
        "nonce": "0x1d",
        "chainId": "0x14a34"
      },
      "additionalContracts": [],
      "isFixedGasLimit": false
    },
    {
      "hash": "0xa69c0b8ce481b4bd74cbd97ee94e5560b4ecdc62ac557780bb26af48c5d0b17a",
      "transactionType": "CALL",
      "contractName": null,
      "contractAddress": "0x05e73354cfdd6745c338b50bcfdfa3aa6fa03408",
      "function": "initialize((address,address,uint24,int24,address),uint160)",
      "arguments": [
        "(0x036CbD53842c5426634e7929541eC2318f3dCF7e, 0x4200000000000000000000000000000000000006, 3000, 60, 0x575E86E42876e07e58cC67E18Cc8e9CC216e8080)",
        "4339505179874779836416"
      ],
      "transaction": {
        "from": "0x3d04a2384f512bd49408618b16210cfc1e648569",
        "to": "0x05e73354cfdd6745c338b50bcfdfa3aa6fa03408",
        "gas": "0x11812",
        "value": "0x0",
        "input": "0x6276cbbe000000000000000000000000036cbd53842c5426634e7929541ec2318f3dcf7e00000000000000000000000042000000000000000000000000000000000000060000000000000000000000000000000000000000000000000000000000000bb8000000000000000000000000000000000000000000000000000000000000003c000000000000000000000000575e86e42876e07e58cc67e18cc8e9cc216e80800000000000000000000000000000000000000000000000eb3ebb69698bd9b000",
        "nonce": "0x1e",
        "chainId": "0x14a34"
      },
      "additionalContracts": [],
      "isFixedGasLimit": false
    },
    {
      "hash": "0xeb4abeb965a7f654f31e7102752d9f9c4f7717a295e125af5c49e6514a356689",
      "transactionType": "CALL",
      "contractName": null,
      "contractAddress": "0x05e73354cfdd6745c338b50bcfdfa3aa6fa03408",
      "function": "initialize((address,address,uint24,int24,address),uint160)",
      "arguments": [
        "(0x036CbD53842c5426634e7929541eC2318f3dCF7e, 0x4200000000000000000000000000000000000006, 3000, 60, 0x27D788e310730c501a0c49ad31A85a31e8E44040)",
        "4339505179874779836416"
      ],
      "transaction": {
        "from": "0x3d04a2384f512bd49408618b16210cfc1e648569",
        "to": "0x05e73354cfdd6745c338b50bcfdfa3aa6fa03408",
        "gas": "0x11812",
        "value": "0x0",
        "input": "0x6276cbbe000000000000000000000000036cbd53842c5426634e7929541ec2318f3dcf7e00000000000000000000000042000000000000000000000000000000000000060000000000000000000000000000000000000000000000000000000000000bb8000000000000000000000000000000000000000000000000000000000000003c00000000000000000000000027d788e310730c501a0c49ad31a85a31e8e440400000000000000000000000000000000000000000000000eb3ebb69698bd9b000",
        "nonce": "0x1f",
        "chainId": "0x14a34"
      },
      "additionalContracts": [],
      "isFixedGasLimit": false
    }
  ],
  "receipts": [
    {
      "status": "0x1",
      "cumulativeGasUsed": "0x4bb7bb",
      "logs": [
        {
          "address": "0x05e73354cfdd6745c338b50bcfdfa3aa6fa03408",
          "topics": [
            "0xdd466e674ea557f56295e2d0218a125ea4b4f0f6f3307b95f85e6110838d6438",
            "0xd766dab376004a82093176b33850e79371ad8cd48fbd888a2235253ff007f0b5",
            "0x000000000000000000000000036cbd53842c5426634e7929541ec2318f3dcf7e",
            "0x0000000000000000000000004200000000000000000000000000000000000006"
          ],
          "data": "0x0000000000000000000000000000000000000000000000000000000000800000000000000000000000000000000000000000000000000000000000000000003c00000000000000000000000036ba2530cf919010701cd8e10acfa1540b6e80800000000000000000000000000000000000000000000000eb3ebb69698bd9b000fffffffffffffffffffffffffffffffffffffffffffffffffffffffffffae5ad",
          "blockHash": "0x987ed326afd7a139295493ad2e5aa8ac3c3db7fe8f69b3258f69730d14631f0f",
          "blockNumber": "0x2392210",
          "blockTimestamp": "0x6985a300",
          "transactionHash": "0xc5ca2029336cfb96dec92f1e3dd588c05f530923f12179d1fdabfff99ab9f363",
          "transactionIndex": "0x7",
          "logIndex": "0x51",
          "removed": false
        }
      ],
      "logsBloom": "0x00000000000000000000000000000000000000000000000000000000000000000000000100000000000000000000000000000000000000000020000000000000000000000000000000000000000000000000000000000000000000000000010000000000000000000000000000000000002010000000000000000000000000000000000044000008000000000000000000020001000000000000000000200000000000000000000000000000000000000000000000000000100000000000000000000000001004000000000000000000000000000000000000000000000000000000000000000000000000000040000000000000000000000000000000000000",
      "type": "0x2",
      "transactionHash": "0xc5ca2029336cfb96dec92f1e3dd588c05f530923f12179d1fdabfff99ab9f363",
      "transactionIndex": "0x7",
      "blockHash": "0x987ed326afd7a139295493ad2e5aa8ac3c3db7fe8f69b3258f69730d14631f0f",
      "blockNumber": "0x2392210",
      "gasUsed": "0xca85",
      "effectiveGasPrice": "0x124f80",
      "blobGasUsed": "0xa218",
      "from": "0x3d04a2384f512bd49408618b16210cfc1e648569",
      "to": "0x05e73354cfdd6745c338b50bcfdfa3aa6fa03408",
      "contractAddress": null,
      "daFootprintGasScalar": "0x138",
      "l1BaseFeeScalar": "0x44d",
      "l1BlobBaseFee": "0x3a28dee",
      "l1BlobBaseFeeScalar": "0xa118b",
      "l1Fee": "0x1d31fc629",
      "l1GasPrice": "0x3ddb00b0",
      "l1GasUsed": "0x85e"
    },
    {
      "status": "0x1",
      "cumulativeGasUsed": "0xeee10",
      "logs": [
        {
          "address": "0x05e73354cfdd6745c338b50bcfdfa3aa6fa03408",
          "topics": [
            "0xdd466e674ea557f56295e2d0218a125ea4b4f0f6f3307b95f85e6110838d6438",
            "0xda8eb6295d2e265f2bc5c10689c1ec67fb42cf3126b72f32c5ecceb4c1bd78dd",
            "0x000000000000000000000000036cbd53842c5426634e7929541ec2318f3dcf7e",
            "0x0000000000000000000000004200000000000000000000000000000000000006"
          ],
          "data": "0x0000000000000000000000000000000000000000000000000000000000000bb8000000000000000000000000000000000000000000000000000000000000003c000000000000000000000000575e86e42876e07e58cc67e18cc8e9cc216e80800000000000000000000000000000000000000000000000eb3ebb69698bd9b000fffffffffffffffffffffffffffffffffffffffffffffffffffffffffffae5ad",
          "blockHash": "0xcd7ee724783997be9a6083aaac249f24f4688a18e17f655338aeb46c932c93d3",
          "blockNumber": "0x2392212",
          "blockTimestamp": "0x6985a304",
          "transactionHash": "0xa69c0b8ce481b4bd74cbd97ee94e5560b4ecdc62ac557780bb26af48c5d0b17a",
          "transactionIndex": "0x5",
          "logIndex": "0xa",
          "removed": false
        }
      ],
      "logsBloom": "0x00000000000000000000000000000000000000000000000000000000000000000000000100000000000000000000000000000000100000000020000000000000000000000000000000000000000000000000000000000000000000000000000000000000000000000000000000000000000010000000000000000000000000000000000044000008000000000000000000000001000000000000000000200000000000000000000000000000000000000000000000400000100000000000000008000000001004000000000000000000000000000000000000000000000000000000000000000000000000000040000000000000000000000000000000000000",
      "type": "0x2",
      "transactionHash": "0xa69c0b8ce481b4bd74cbd97ee94e5560b4ecdc62ac557780bb26af48c5d0b17a",
      "transactionIndex": "0x5",
      "blockHash": "0xcd7ee724783997be9a6083aaac249f24f4688a18e17f655338aeb46c932c93d3",
      "blockNumber": "0x2392212",
      "gasUsed": "0xcac5",
      "effectiveGasPrice": "0x124f80",
      "blobGasUsed": "0xa830",
      "from": "0x3d04a2384f512bd49408618b16210cfc1e648569",
      "to": "0x05e73354cfdd6745c338b50bcfdfa3aa6fa03408",
      "contractAddress": null,
      "daFootprintGasScalar": "0x138",
      "l1BaseFeeScalar": "0x44d",
      "l1BlobBaseFee": "0x3a28dee",
      "l1BlobBaseFeeScalar": "0xa118b",
      "l1Fee": "0x1e1b6a623",
      "l1GasPrice": "0x3ddb00b0",
      "l1GasUsed": "0x8a1"
    },
    {
      "status": "0x1",
      "cumulativeGasUsed": "0x6313a9",
      "logs": [
        {
          "address": "0x05e73354cfdd6745c338b50bcfdfa3aa6fa03408",
          "topics": [
            "0xdd466e674ea557f56295e2d0218a125ea4b4f0f6f3307b95f85e6110838d6438",
            "0x1d04f8a4434910ed043b71d4741bcfafac58dc2ea1042e1d3ea6136f6ce16b64",
            "0x000000000000000000000000036cbd53842c5426634e7929541ec2318f3dcf7e",
            "0x0000000000000000000000004200000000000000000000000000000000000006"
          ],
          "data": "0x0000000000000000000000000000000000000000000000000000000000000bb8000000000000000000000000000000000000000000000000000000000000003c00000000000000000000000027d788e310730c501a0c49ad31a85a31e8e440400000000000000000000000000000000000000000000000eb3ebb69698bd9b000fffffffffffffffffffffffffffffffffffffffffffffffffffffffffffae5ad",
          "blockHash": "0x4be766fdf28324496b92821e3016cccf9526d6764ec9e2b76cda25dea3e64a1e",
          "blockNumber": "0x2392213",
          "blockTimestamp": "0x6985a306",
          "transactionHash": "0xeb4abeb965a7f654f31e7102752d9f9c4f7717a295e125af5c49e6514a356689",
          "transactionIndex": "0x19",
          "logIndex": "0x5d",
          "removed": false
        }
      ],
      "logsBloom": "0x00000000000000000000000000000000000000000000000000000200000000000000000100000000000000000000000000000000000000000020000000000000000000000000000000000000000000000000000000000000000000000000000000000000000000000000000000000000000010000000000000000000000000000000000044000008000000000000000000000001000000000000000000200000000000000000000000000000000000000000000000000000100000000000000000000008001004000000000000200000000000000000000000000000000000000000000000000000000000000040000000000000000000000000000000000000",
      "type": "0x2",
      "transactionHash": "0xeb4abeb965a7f654f31e7102752d9f9c4f7717a295e125af5c49e6514a356689",
      "transactionIndex": "0x19",
      "blockHash": "0x4be766fdf28324496b92821e3016cccf9526d6764ec9e2b76cda25dea3e64a1e",
      "blockNumber": "0x2392213",
      "gasUsed": "0xcac5",
      "effectiveGasPrice": "0x124f80",
      "blobGasUsed": "0xa830",
      "from": "0x3d04a2384f512bd49408618b16210cfc1e648569",
      "to": "0x05e73354cfdd6745c338b50bcfdfa3aa6fa03408",
      "contractAddress": null,
      "daFootprintGasScalar": "0x138",
      "l1BaseFeeScalar": "0x44d",
      "l1BlobBaseFee": "0x3a28dee",
      "l1BlobBaseFeeScalar": "0xa118b",
      "l1Fee": "0x1e1b6a623",
      "l1GasPrice": "0x3ddb00b0",
      "l1GasUsed": "0x8a1"
    }
  ],
  "libraries": [],
  "pending": [],
  "returns": {},
  "timestamp": 1770365702399,
  "chain": 84532,
  "commit": null
}